:020000040800F2
:100000000050002059270008E9250008EB250008CA
:10001000ED250008EF250008F1250008000000008C
:10002000000000000000000000000000C10E0008F9
:10003000F325000800000000210F0008F525000846
:10004000A1270008A1270008A1270008A127000870
:10005000A1270008A1270008A1270008A127000860
:10006000A1270008A1270008A1270008A127000850
:10007000A1270008A1270008A1270008A127000840
:10008000A1270008A1270008A1270008A127000830
:10009000A1270008A1270008A1270008A127000820
:1000A000A1270008A1270008A1270008A127000810
:1000B000A1270008A1270008A1270008A127000800
:1000C000A1270008A1270008A1270008A1270008F0
:1000D000A1270008A1270008A1270008A1270008E0
:1000E000A1270008A1270008A127000800000000A0
:1000F0000000000000000000000000000000000000
:0C01000000000000000000005FF808F1A3
:1001100010B5054C237833B9044B13B10448AFF341
:1001200000800123237010BD54080020000000004F
:100130000C42000808B5034B1BB103490348AFF359
:10014000008008BD00000000580800200C42000894
:10015000844641EA000313F0030349D1403A23D314
:100160000B6803604B6843608B688360CB68C36037
:100170000B6903614B6943618B698361CB69C3611F
:100180000B6A03624B6A43628B6A8362CB6AC36207
:100190000B6B03634B6B43638B6B8363CB6BC363EF
:1001A00040304031403ADBD230320BD30B68036031
:1001B0004B6843608B688360CB68C360103010313C
:1001C000103AF3D20C3205D351F8043B40F8043B0B
:1001D000043AF9D2043208D0D2071CBF11F8013B0F
:1001E00000F8013B01D30B8803806046704700BFD5
:1001F000082A13D38B07B1D010F00303AED0C3F19C
:100200000403D21ADB071CBF11F8013B00F8013BC5
:10021000A4D331F8023B20F8023B9FE7043AD9D33C
:10022000013A11F8013B00F8013BF9D20B78037059
:100230004B7843708B7883706046704710B50446E6
:100240000E4B18784FF47A73B3FBF0F30C4A106836
:10025000B0FBF3F000F086F868B90F2C01D901204B
:100260000AE0002221464FF0FF3000F043F8054B32
:100270001C60002000E0012010BD00BF0000002035
:10028000100000200400002008B5074A136843F05E
:1002900010031360032000F01BF80F20FFF7CEFFC0
:1002A00002F080F9002008BD00200240034A1168D6
:1002B000034B1B780B441360704700BF700800208D
:1002C00000000020014B1868704700BF7008002034
:1002D000074AD36823F4E0631B041B0C000200F4FC
:1002E000E060034343F0BF6343F40033D3607047DF
:1002F00000ED00E000B5194BDB68C3F30223C3F146
:10030000070CBCF1040F28BF4FF0040C03F1040EDE
:10031000BEF1060F18D9033B4FF0FF3E0EFA0CFC5E
:1003200021EA0C0199400EFA03F322EA0303194370
:1003300000280BDB0901C9B200F1604000F5614003
:1003400080F800135DF804FB0023E5E700F00F00E0
:100350000901C9B2024B1954F4E700BF00ED00E0F7
:1003600014ED00E00138B0F1807F0BD24FF0E023B4
:100370005861054AF02182F8231000209861072275
:100380001A6170470120704700ED00E070B582B03F
:100390000024A446A6E0804DAA4210D007D97F4D84
:1003A000AA420CD005F58035AA4208D013E0A5F585
:1003B0008015AA4203D005F57025AA4207D18A68A4
:1003C000002A58D0012A51D04361082403E0A5F542
:1003D0008015AA42F3D0BEF1FF0F4ED80646BEF1FB
:1003E000FF0F4CD84FEA8C0233680F25954023EA63
:1003F000050304FA02F2134333604B6813F0805F85
:100400006ED0674B9A6942F001029A619B6903F0D2
:1004100001030193019B4FEA9C02951C614B53F829
:1004200025600CF003039D000F23AB4026EA030672
:100430005D4B984229D003F58063984200F08E808E
:1004400003F58063984200F08B8003F58063984247
:1004500019D004231AE0CC68BDE7CC680434BAE7AD
:10046000CC680834B7E7CC680C34B4E703610824DF
:10047000B1E70024AFE70424ADE7061DAFE7ACF118
:1004800008029200B0E7032300E00023AB403343AF
:100490000232444D45F822304B6813F4801F61D07E
:1004A000424A936843EA0E0393604B6813F4001FBB
:1004B0005ED03E4AD36843EA0E03D3604B6813F420
:1004C000003F5BD0394A536843EA0E0353604B68E0
:1004D00013F4803F58D0354A136843EA0E03136083
:1004E0000CF1010C0A6832FA0CF353D0012303FA21
:1004F0000CF302EA030E33EA0202F1D14A68122A2F
:100500003FF649AF122A3FF666AF01A555F822F033
:10051000BF030008570400086104000873040008C2
:10052000D7030008D7030008D7030008D703000843
:10053000D7030008D7030008D7030008D703000833
:10054000D7030008D7030008D7030008D703000823
:10055000D70300085B04000867040008012395E73F
:10056000022393E7114A936823EA0E0393609CE702
:100570000E4AD36823EA0E03D3609FE70B4A536801
:1005800023EA0E035360A2E7084A136823EA0E0326
:100590001360A5E702B070BD00002210000031100A
:1005A000001002400000014000080140000401402A
:1005B0000AB101617047090401617047C36801EA2B
:1005C000030221EA030141EA024101617047000090
:1005D00082B0084B1B68084AA2FB03235B0A00FB9E
:1005E00003F3019300BF019B5A1E0192002BF9D126
:1005F00002B0704710000020D34D6210002800F0B8
:10060000F18170B582B00446036813F0010F2CD05D
:10061000994B5B6803F00C03042B1DD0964B5B6871
:1006200003F00C03082B12D06368B3F5803F41D070
:10063000002B55D103F1804303F504331A6822F4EB
:1006400080321A601A6822F480221A6037E08A4BDE
:100650005B6813F4803FE7D0874B1B6813F4003FBF
:1006600003D06368002B00F0BF81236813F0020FF2
:1006700075D0814B5B6813F00C0F5FD07E4B5B68CD
:1006800003F00C03082B54D02369002B00F08A8060
:100690007A4B01221A60FFF715FE0546764B1B6860
:1006A00013F0020F75D1FFF70DFE401B0228F5D99C
:1006B00003209EE1704A136843F48033136063683B
:1006C00043B3FFF7FFFD05466B4B1B6813F4003F78
:1006D000CBD1FFF7F7FD401B6428F5D9032088E153
:1006E000B3F5A02F09D0644B1A6822F480321A6047
:1006F0001A6822F480221A60E1E703F18043A3F52F
:100700003C331A6842F480221A601A6842F480323C
:100710001A60D4E7FFF7D6FD0546574B1B6813F464
:10072000003FA2D0FFF7CEFD401B6428F5D903207F
:100730005FE1514B5B6813F4803FA5D14E4B1B68C2
:1007400013F0020F03D02369012B40F04F814A4A76
:10075000136823F0F803616943EAC1031360236857
:1007600013F0080F33D0A369002B5CD0434B012258
:10077000C3F88024FFF7A6FD05463F4B5B6A13F0E4
:10078000020F21D1FFF79EFD401B0228F5D903205F
:100790002FE1394A136823F0F803616943EAC10382
:1007A0001360DCE7354B00221A60FFF78BFD05462E
:1007B000314B1B6813F0020FD1D0FFF783FD401BB4
:1007C0000228F5D9032014E10120FFF701FF236877
:1007D00013F0040F00F09680274BDB6913F0805F65
:1007E00034D1254BDA6942F08052DA61DB6903F0DB
:1007F00080530193019B0125214B1B6813F4807FDB
:1008000026D0E368012B3DD0002B53D103F1804368
:1008100003F504331A6A22F001021A621A6A22F0FE
:1008200004021A6233E0154B0022C3F88024FFF75C
:1008300049FD0546104B5B6A13F0020FC7D0FFF766
:1008400041FD401B0228F5D90320D2E00025D3E763
:100850000B4A136843F480731360FFF733FD0646B9
:10086000074B1B6813F4807FCBD1FFF72BFD801B58
:100870006428F5D90320BCE0001002400000424289
:10088000007000405F4A136A43F001031362E3689B
:1008900033B3FFF717FD06465A4B1B6A13F0020FDE
:1008A0002FD1FFF70FFD801B41F288339842F3D917
:1008B00003209EE0052B09D0524B1A6A22F0010258
:1008C0001A621A6A22F004021A62E0E74D4B1A6AB1
:1008D00042F004021A621A6A42F001021A62D6E772
:1008E000FFF7F0FC0646474B1B6A13F0020F08D0D7
:1008F000FFF7E8FC801B41F288339842F3D90320CC
:1009000077E0E5B9E369002B72D03E4A526802F005
:100910000C02082A56D0022B17D03B4B00221A6635
:10092000FFF7D0FC0446374B1B6813F0007F47D01D
:10093000FFF7C8FC001B0228F5D9032059E0314A13
:10094000D36923F08053D361DCE72F4B00221A6672
:10095000FFF7B8FC05462B4B1B6813F0007F06D051
:10096000FFF7B0FC401B0228F5D9032041E0236AC1
:10097000B3F5803F1AD023494B6823F47413226ADD
:10098000606A024313434B601F4B01221A66FFF754
:1009900099FC04461B4B1B6813F0007F0ED1FFF738
:1009A00091FC001B0228F5D9032022E0154A536868
:1009B00023F40033A1680B435360DCE7002018E008
:1009C000002016E0012B16D00E4B5B6803F480313B
:1009D000226A914211D103F47013626A93420ED1DC
:1009E000002006E001207047012002E0012000E025
:1009F000002002B070BD0120FBE70120F9E70120D3
:100A0000F7E700BF00100240000042420F4B5B6856
:100A100003F00C02082A01D00D487047C3F383424B
:100A20000C49885C13F4803F0BD0084B5B68C3F320
:100A30004043094AD35C064A02FB00F0B0FBF3F0E6
:100A40007047064B03FB00F0704700BF00100240E8
:100A500000127A00244200083442000800093D00D8
:100A6000002800F0A08070B50D460446524B1B686C
:100A700003F007038B420BD24F4A136823F007039E
:100A80000B431360136803F007038B4240F08D8023
:100A9000236813F0020F17D013F0040F04D0474A55
:100AA000536843F4E0635360236813F0080F04D0E5
:100AB000424A536843F460535360404A536823F0FA
:100AC000F003A1680B435360236813F0010F31D08A
:100AD0006368012B20D0022B25D0384A126812F00F
:100AE000020F64D035494A6822F0030213434B6079
:100AF000FFF7E8FB0646314B5B6803F00C036268C6
:100B0000B3EB820F16D0FFF7DDFB801B41F2883379
:100B10009842F0D9032045E0284A126812F4003FB9
:100B2000E0D101203EE0254A126812F0007FD9D1C1
:100B3000012037E0204B1B6803F00703AB420AD9C2
:100B40001D4A136823F007032B431360136803F057
:100B50000703AB422DD1236813F0040F06D0174AC8
:100B6000536823F4E063E1680B435360236813F098
:100B7000080F07D0114A536823F46053216943EAF0
:100B8000C1035360FFF742FF0C4B5B68C3F30313D1
:100B90000B4AD35CD8400B4B18600B4B1868FFF71F
:100BA0004DFB002070BD012070470120FAE70120B5
:100BB000F8E70120F6E700BF0020024000100240E5
:100BC000744200081000002004000020014B186847
:100BD000704700BF1000002008B5FFF7F7FF044B77
:100BE0005B68C3F30223034AD35CD84008BD00BF4F
:100BF000001002408442000808B5FFF7E7FF044BED
:100C00005B68C3F3C223034AD35CD84008BD00BF6E
:100C1000001002408442000810B5044602681369BF
:100C200023F44053C1680B43136183680269134383
:100C300042691A430168CB6823F4B05323F00C03D4
:100C40001343CB600268536923F4407381690B43FB
:100C500053610268134B9A4220D0FFF7BDFF024652
:100C600002EB820202EB820263689B00B2FBF3F2AA
:100C70000D48A0FB02314909642303FB11231B012A
:100C80003233A0FB03235B0903F0F00202EB0112F5
:100C900003F00F03216813448B6010BDFFF7ACFF16
:100CA0000246DDE7003801401F85EB512DE9F8438E
:100CB00005460F4616469946DDF820802C682468C4
:100CC00037EA04030CBF4FF0010C4FF0000CB445A1
:100CD0002DD1B8F1FF3FF1D0B8F1000F05D0FFF7EB
:100CE000F1FAA0EB09004045E8D92A6802F10C03AB
:100CF00053E8003F23F4D0730C3242E8003100295E
:100D0000F3D12A6802F1140353E8003F23F00103F2
:100D1000143242E800310029F3D1202385F8413014
:100D200085F84230002385F84030032000E00020A1
:100D3000BDE8F88360B310B5044690F8413013B3B2
:100D4000242384F841302268D36823F40053D3600D
:100D50002046FFF761FF2268136923F49043136173
:100D60002268536923F02A0353612268D36843F44D
:100D70000053D36000206064202384F8413084F85D
:100D80004230606310BD80F8403001F0A9FCD7E725
:100D9000012070472DE9F04182B01E4690F84130A5
:100DA000DBB2202B4BD104460D46904600294AD099
:100DB0000AB9012044E000234364212380F8413034
:100DC000FFF780FA0746A4F82480A4F82680A368D9
:100DD000B3F5805F02D04FF000080FE02369FBB14C
:100DE0004FF000080AE038F8023B2268C3F308031A
:100DF0005360E28C92B2013A92B2E284E38C9BB2ED
:100E00008BB100963B46002280212046FFF74EFF23
:100E1000D8B9002DE7D015F8012B23685A60E8E710
:100E2000A8460025EAE700963B46002240212046DE
:100E3000FFF73CFF58B9202384F8413000E002203E
:100E400002B0BDE8F0810120FAE70320F8E70320B3
:100E5000F6E782B0002301934FF0500383F311882B
:100E6000BFF36F8FBFF34F8F019B002BFCD002B0FD
:100E70007047000006480068006880F3088862B682
:100E800061B6BFF34F8FBFF36F8F00DF00BF00006D
:100E900008ED00E04FF0807340F8043C21F00101C0
:100EA00040F8081C034B40F80C3C40F8202C40381C
:100EB000704700BF530E0008000000000000000053
:100EC000074B19680868B0E8F00F80F30988BFF392
:100ED0006F8F4FF0000080F311884EF00D0E7047B9
:100EE000D03000204FF0500383F31188BFF36F8F91
:100EF000BFF34F8F024A136801331360704700BF7E
:100F000008000020034A1368013B13600BB983F308
:100F10001188704708000020000000000000000059
:100F2000EFF30980BFF36F8F0D4B1A6820E9F00FC4
:100F300010602DE908404FF0500080F3118800F058
:100F400013FF4FF0000080F31188BDE808401968D6
:100F50000868B0E8F00F80F30988BFF36F8F70471F
:100F6000D030002008B54FF0500383F31188BFF351
:100F70006F8FBFF34F8F00F093FD28B14FF0E02348
:100F80004FF08052C3F8042D002383F3118808BD6D
:100F90004FF0E022002313619361054B1B68054964
:100FA000A1FB03135B0A013B5361032313617047E9
:100FB00010000020D34D621010B54FF0E023D3F89D
:100FC000202D42F47002C3F8202DD3F8202D42F0DA
:100FD0007042C3F8202DFFF7DBFF0024044B1C6098
:100FE000FFF748FF00F0C0FEFFF733FF204610BDBB
:100FF00008000020104A12F0070F1AD0D11D21F06E
:101000000701C1F5205313440A460C480260002131
:1010100041601344083B23F007030948036059600B
:101020001960991A51601360064B1960064B1960DC
:1010300070474FF42053E8E77808002088300020FC
:10104000740800207C30002078300020154B1A46B0
:101050001B688342FBD3516802EB010C844509D025
:10106000416800EB010C634509D00360904218D041
:10107000106070474068014451601046F0E710B4BA
:10108000094C2468A3420AD05B6819444160136884
:101090001B680360904200D0106010BC7047046071
:1010A000F8E77047883000207408002070B50546C6
:1010B00000F0E2FC2A4B1B689BB13DB105F0070331
:1010C000C3F11003DA43AA420ED31D44002D3FDBC7
:1010D000002D3FD0234B1B68AB423DD3224A1468FE
:1010E00006E0FFF787FFE8E70025EFE722461C460A
:1010F0006368AB4202D22368002BF7D1184B1B6800
:10110000A3422BD0166808362368136063685B1B04
:10111000102B17D8626813490B689B1A0B60134990
:1011200009688B4201D211490B6042F000426260B3
:10113000002323600E4A13680133136000F060FD42
:10114000304670BD601943606560FFF77FFFE1E7DF
:101150000026F3E70026F1E70026EFE70026EDE79B
:101160007408002078300020883000207C30002077
:101170008030002008B338B50446A0F1080550F8C7
:10118000043C002B02DA50F8082C02B138BD23F0E1
:10119000004340F8043C00F06FFC54F8041C074A7C
:1011A00013680B4413602846FFF750FF044A136886
:1011B0000133136000F024FDE8E770477830002029
:1011C0008430002000F1080343604FF0FF3282605A
:1011D000C36003610023036070470023036170470D
:1011E00030B40D68B5F1FF3F11D000F108031C4683
:1011F0005B681A68AA42FAD963684B6099608C6090
:101200006160086103680133036030BC70470469A2
:10121000F2E70369416882688A60416851605A68F0
:10122000824206D0002202611A68013A1A601868E8
:10123000704782685A60F5E710B50446FFF752FE22
:10124000A36B23B90124FFF75DFE204610BD0024E7
:10125000F9E770B504461546866B026C5AB9036807
:101260001BB100200136A66370BD806800F0B8FE97
:101270000023A360F6E76DB94068FEF769FF226CB2
:10128000636813446360A268934219D32368636060
:101290002846E7E7C068FEF75BFF226C5142E3682F
:1012A0009B1AE3602268934202D2A3680B44E36076
:1012B000022D01D00020D5E726B1013E0020D1E764
:1012C0002846CFE70020CDE708B50346026C62B19F
:1012D0000846D9681144D960D3F808C0614501D3E4
:1012E0001968D960D968FEF733FF08BD70B582B0C0
:1012F0000190846CA26BE36B9A4203D300252846CD
:1013000002B070BD94F8456076B2002201A9204673
:10131000FFF79FFF0546B6F1FF3F0AD1636A002B36
:10132000EDD004F1240000F08DFD0028E7D0012568
:10133000E5E700F0AFFB8642E1D2013676B284F8F1
:101340004560DCE738B50546FFF7CCFD95F845402C
:1013500064B208E06B6AB3B105F1240000F072FDDD
:1013600070B9013C64B2002C0DDDAB6C002BF1D0E8
:101370002846FFF7BBFF0028F3D000F01BFEF0E784
:1013800000F018FEEDE7FF2385F84530FFF7BAFDC2
:10139000FFF7A8FD95F8444064B201E0013C64B257
:1013A000002C0ADD2B6943B105F1100000F04AFD65
:1013B0000028F3D000F0FEFDF0E7FF2385F844306D
:1013C000FFF7A0FD38BD002844D038B50D460446CF
:1013D000C36B002B40D0026C0021A3FB022313B986
:1013E00019B1002039E00121FAE7FFF77BFD2368FE
:1013F000E26B216C01FB0230A0600020A0636360FF
:10140000013A02FB0133E360FF2384F8443084F89F
:101410004530B5B923691BB9FFF774FD01201CE005
:1014200004F1100000F00EFD0028F5D04FF0E0238D
:101430004FF08052C3F8042DBFF34F8FBFF36F8F6F
:10144000EAE704F11000FFF7BDFE04F12400FFF706
:10145000B9FEE1E700207047002038BD38B51D46D1
:10146000049C0B4659B92460E063236401212046A3
:10147000FFF7A9FF84F850500023A36438BD226011
:10148000F2E7F0B583B0E0B10C46174605460023FD
:10149000A0FB04129AB9C3B904FB05F010F1550F73
:1014A00015D85430FFF702FE064658B100903B466F
:1014B00000F1540221462846FFF7D0FF02E0012345
:1014C000E9E70026304603B0F0BD0026FAE7002623
:1014D000F8E7F0B585B004460F46019200263EE0DD
:1014E00039462046FFF7F0FE013DA563236923B985
:1014F000FFF708FD012005B0F0BD04F1100000F079
:10150000A1FC0028F4D04FF0E0234FF08052C3F844
:10151000042DBFF34F8FBFF36F8FE9E7FFF7F2FCA6
:101520000020E8E702A800F0FBFC012621E00023F0
:1015300084F8443029E0002384F845302BE020462D
:10154000FFF700FF00F05CFB09E02046FFF7FAFE22
:1015500000F056FB2046FFF76FFE00283FD1FFF753
:10156000C1FCA56B002DBBD1019B002BD6D0002E5A
:10157000D8D0FFF7C7FC00F07FFAFFF7B3FC94F870
:1015800044305BB2B3F1FF3FD1D094F845305BB249
:10159000B3F1FF3FCFD0FFF7B5FC01A902A800F0DF
:1015A000CBFC0028D1D12046FFF746FE0028C6D04C
:1015B000019904F1240000F019FC2046FFF7C2FE57
:1015C00000F01EFB0028CAD14FF0E0234FF08052FC
:1015D000C3F8042DBFF34F8FBFF36F8FBFE7002019
:1015E00089E7000021B110B40C4600210B4609E048
:1015F00070470E4901EBC30109B10C60486010BC93
:1016000070470133072BF7D8084A02EBC302526830
:101610008242EED00029F4D1044A52F83320002A45
:10162000EFD1024901EBC301EBE700BF903000208E
:1016300070B504460D461646FFF754FC94F8443046
:101640005BB2B3F1FF3F0DD094F845305BB2B3F11C
:10165000FF3F0BD0FFF756FCA36B5BB12046FFF7B3
:1016600071FE70BD002384F84430EDE7002384F858
:101670004530EFE73246294604F1240000F0C4FB70
:10168000ECE70000074B1B681B6823B9064B4FF0C3
:10169000FF321A607047034B1B68DB681A68024B05
:1016A0001A607047D43000209C33002010B50446E7
:1016B000006BFFF75FFD2046FFF75CFD10BD2DE9D5
:1016C000F04780460D4617469946089EDDF824A04F
:1016D0000A9C9200A521206B01F08EF8236B07F184
:1016E0008042013A03EB820727F007079DB14FF0D4
:1016F000000CBCF10F0F0BD815F80C2004EB0C03F9
:1017000083F8342015F80C3013B10CF1010CF0E71C
:10171000002384F843301F2E00D91F26E662E664BA
:10172000201DFFF75AFD04F11800FFF756FD246154
:10173000C6F12006A66164624A4641463846FFF774
:10174000A9FB2060BAF1000F01D0CAF80040BDE843
:10175000F087000038B5002407E004EB8402930012
:101760000E481844FFF72EFD01341F2CF5D90C4DFF
:101770002846FFF727FD0B4C2046FFF723FD0A48BC
:10178000FFF720FD0948FFF71DFD0948FFF71AFD87
:10179000084B1D60084B1C6038BD00BFDC300020CA
:1017A0007033002084330020A8330020D43300207D
:1017B000C0330020D4300020D830002010B50446BB
:1017C000FFF790FB294A136801331360284B1B680D
:1017D0005BB1284B1B686BB9254B1B68DA6AE36A5F
:1017E0009A4207D8224B1C6004E0214B1C6013680E
:1017F000012B37D0204A1368013313606364E36A16
:101800001E4A1268934201D91C4A13601C4A03EB1A
:10181000830302EB83035B68A3609868E060211D8B
:1018200041609960E36A03EB8301880002EB810168
:101830006161115801311150FFF764FB0D4B1B68BA
:101840007BB10B4B1B68DA6AE36A9A4209D24FF00C
:10185000E0234FF08052C3F8042DBFF34F8FBFF346
:101860006F8F10BDFFF776FFC4E700BF5C33002029
:10187000D0300020BC330020683300206C330020BF
:10188000DC3000200F4B1B68D3B110B5FFF72AFBEB
:101890000D4BDB68DC68201DFFF7BBFC0B4A1368AF
:1018A000013B1360074A1368013B1360FFF72AFBF3
:1018B0002046FFF7FBFE034B1B68002BE6D110BD53
:1018C000704700BF60330020D43300205C33002019
:1018D00008B5FFF7D7FF074B1B68012BF9D94FF06D
:1018E000E0234FF08052C3F8042DBFF34F8FBFF3B6
:1018F0006F8FEEE7DC30002070B505460C46204BBC
:101900001E68204B1A68002182F8591018680430AC
:10191000FFF77FFCB5F1FF3F0DD03544194B1B6835
:101920005D60AE421DD9184B1868164B196804311A
:10193000FFF756FC70BD002CEFD0144A5168114BD4
:101940001868816018688C68C4601868043060602A
:101950001868043088601B685A611368013313608B
:10196000E8E70B4B1868074B19680431FFF738FCA0
:10197000084B1B68AB42DDD9064B1D60DAE700BFA0
:10198000E8330020D0300020D8300020C0330020C1
:10199000D43000209C3300202DE9F04385B0074669
:1019A000884614461E469000FFF780FB10B3814620
:1019B0005C20FFF77BFB0546C0B15C22002100F0F4
:1019C0001BFFC5F83090D5B10023039302950D9B02
:1019D00001930C9B00933346224641463846FFF75D
:1019E0006EFE2846FFF7EAFE012005E04846FFF7B5
:1019F000C1FBE8E74FF0FF3005B0BDE8F0834FF0E2
:101A0000FF30F9E700B583B0144B01930023009336
:101A1000802213491348FFF7BFFF012806D0012891
:101A200007D0114B1B6803B05DF804FB00F096FC77
:101A3000F5E74FF0500383F31188BFF36F8FBFF3C7
:101A40004F8F0A4B4FF0FF321A60094B01221A6088
:101A5000084B00221A60FFF7AFFAE2E79833002044
:101A600038420008D11800080C0000209C330020E8
:101A7000BC330020E8330020024A136801331360AE
:101A8000704700BF64330020014B1868704700BFE7
:101A9000E8330020014B1868704700BF5C3300201A
:101AA0004C4B1B68002B40F08D8070B54A4B1C6876
:101AB00001341C60A4B1494B1B68A3421DD900200E
:101AC000474B1B68DB6A03EB83039A00454B9B582B
:101AD000012B00D90120444B1B68002B78D170BD2D
:101AE000424A1168424B186810601960414A1368F5
:101AF00001331360FFF7C6FDDDE7002037E0374B09
:101B00004FF0FF321A60DBE7344B1A60D8E7D96830
:101B1000516042E000219962116801391160DA6A6E
:101B2000354909688A4201D933490A602D4902EBD7
:101B300082024FEA820C8C44DCF804209A6096689A
:101B4000DE6075609560DA6A02EB820C4FEA8C0504
:101B50004E195E614D5901354FEA8C0C41F80C501D
:101B6000DA6A1F4B1B68DB6A9A4200D901201F4BBF
:101B70001B681B68002BC2D01C4B1B68DB68DB6832
:101B80005A689442C0D35A699D68D968A9609D6813
:101B90004D6051681D1DA942B9D0002159611168DD
:101BA000013911609A6A002AB9D0DE69196AB160F8
:101BB000DE694E60566803F118018E42AAD1196A97
:101BC0005160A7E70D4A1368013313600020704786
:101BD000012084E764330020E83300209C33002098
:101BE000D0300020DC300020EC330020D430002046
:101BF000D8300020A03300206C330020A433002014
:101C000010B5FFF76FF9434B1A68013A1A601B6869
:101C1000002B7AD1404B1B683BB9002476E0196A4F
:101C2000516015E0D968516021E000233B4A1268F9
:101C3000002A47D0394BDB68DB689A6AD869196A91
:101C40008160D8694860506803F118018842E6D085
:101C5000002199621168013911605A699868D96840
:101C60008160986848605168181D8142DAD000216F
:101C70005961116801391160DA6A294909688A4293
:101C800001D927490A60274902EB820201EB82024F
:101C900052689A609468DC6060609060DA6A02EB77
:101CA0008200840001EB800058610859013008511E
:101CB000D96A1D4A1268D26A9142B7D31B4A0121E0
:101CC0001160B3E70BB1FFF7DDFC194B1C6884B959
:101CD000164B1C68D4B14FF0E0234FF08052C3F88C
:101CE000042DBFF34F8FBFF36F8F01240EE0013C33
:101CF00007D0FFF7D5FE0028F9D00C4B01221A605F
:101D0000F5E70B4B00221A60E2E70024FFF7FAF830
:101D1000204610BD643300205C330020A83300202F
:101D20006C330020DC300020D0300020EC33002069
:101D3000A433002010B550B94FF0E0234FF080528B
:101D4000C3F8042DBFF34F8FBFF36F8F10BD044650
:101D5000FFF792FE00212046FFF7CEFDFFF750FF70
:101D60000028F3D1E8E700001B4B1B681BB11B4B9D
:101D700001221A607047194B00221A60184B1B6829
:101D800000E0013B03EB83018A0016498A58002AD0
:101D9000F7D003EB830082000A445068406850602B
:101DA00003EB830C4FEA8C020832114488420BD0BB
:101DB00003EB830291000B4A0A445268D1680A4A35
:101DC0001160074A13607047406862469100054AF7
:101DD0000A445060ECE700BF64330020EC3300207D
:101DE0006C330020DC300020D030002010B50C46D1
:101DF000044B19681831FFF7F3F901212046FFF76A
:101E00007BFD10BDD030002070B5034608465968F0
:101E10000B4C2568E96125688E682E6225681835A7
:101E20007560256818358D6021688B6219680131ED
:101E3000196011460AB14FF0FF30FFF75DFD70BD2C
:101E4000D030002010B4C368DB689A6AD869196A78
:101E50008160D8694860516803F1180081423ED022
:101E600000219962116801391160274A1268002A1D
:101E70003BD15A699868D968816098684860516810
:101E8000181D81422ED0002159611168013911605D
:101E9000DA6A1E4909688A4201D91C490A601C494C
:101EA00002EB820201EB820252689A609468DC6065
:101EB00060609060DA6A02EB8200840001EB8000CF
:101EC0005861085901300851DA6A124B1B68DB6A05
:101ED0009A4216D90120104B186010BC7047196A3D
:101EE0005160BDE7D9685160CDE70C4A5168D961AE
:101EF0008C681C62606088609A62116801311160B0
:101F0000E2E70020E9E700BF643300206C330020E3
:101F1000DC300020D0300020EC330020A83300203B
:101F2000034B1B680360034B1B684360704700BF93
:101F3000A0330020E833002070B504460D46FEF7BC
:101F4000D1FF194B1A686368D01A1849096891F8CB
:101F5000591049B1154B1B68002283F85920012400
:101F6000FEF7D0FF204670BD2968B1F1FF3F19D0C0
:101F70000F4E3668D4F800C0B44505D0934203D85C
:101F800000232B600124EBE7814203D800232B6060
:101F90000124E5E79B1A0B442B602046FFF7C0FFA6
:101FA0000024DDE70024DBE7E8330020D030002008
:101FB000A0330020014B01221A607047EC3300204F
:101FC000054B1B6833B1054B1B680BB100207047F4
:101FD0000220704701207047BC330020643300208A
:101FE000002831D038B50446036D013B0365C16A52
:101FF000C26C91422AD00BB1002038BD051D284685
:10200000FFF707F9E36CE362C3F12002A261104A13
:102010001268934201D90E4A13600E4A03EB830300
:1020200002EB83035B68A3609968E1604D609D608B
:10203000E36A03EB8301880002EB810161611158BF
:10204000013111500120D8E7002070470020D4E76B
:102050006C330020DC300020064B1A6813682BB963
:102060000123036023B9D368186870470023F8E799
:1020700000207047F033002008B5416000619142B4
:102080000CD8D21A83699A4201D3012008BD011DE0
:10209000094B1868FFF7A4F80020F7E79A4201D22D
:1020A000994206D2011D054B1868FFF799F80020E8
:1020B000ECE70120EAE700BFF4330020F033002012
:1020C00070B504460D46164604E0A3691D44236A14
:1020D00020469847A1692B46324629442046FFF7FF
:1020E000CBFF0028F1D170BD70B505460E460D4BF3
:1020F0001B68DB68DC68201DFFF78BF894F828303C
:1021000013F0040F07D123F0010384F82830236A69
:102110002046984770BD324629462046FFF7D0FF3B
:10212000F5E700BFF033002008B505E0DB684FF0AD
:10213000FF311868FFF7D8FF054B1B681A68002AA3
:10214000F4D1044A106802490860136008BD00BF5A
:10215000F0330020F433002038B50546FFF794FC37
:102160000446074B1B68834205D800232B60044BB1
:102170001C60204638BDFFF7D7FF01232B60F6E730
:102180002034002070B582B006460C46FFF774FC80
:1021900001A8FFF7E1FF019B33BB05460CB9B04234
:1021A00019D224B1124A12681268DAB901242246FF
:1021B000711B104B1868FFF73BFAFFF721FDA8B918
:1021C0004FF0E0234FF08052C3F8042DBFF34F8F40
:1021D000BFF36F8F0AE0FFF713FD29463046FFF784
:1021E00083FF03E01C46E2E7FFF70AFD02B070BD83
:1021F000F43300202434002030B587B002E0029B85
:10220000002B0FDA002202A9364B1868FFF761F99C
:10221000002864D0029B002BF1DA05990498039BF7
:102220009847ECE7049C636913B1201DFEF7F1FFAA
:1022300001A8FFF791FF0546029B013B082BE1D85F
:10224000DFE803F0050529303F050529300094F843
:10225000283043F0010384F82830039BA16902462B
:1022600019442046FFF708FF0028CBD094F8283007
:1022700013F0040F07D123F0010384F82830236AF8
:1022800020469847BEE7A3692A4603991944204689
:10229000FFF716FFF3E794F8283023F0010384F8E2
:1022A0002830AFE794F8283043F0010384F8283051
:1022B0000399A1610346024601442046FFF7DCFE74
:1022C000A0E794F8283013F0020F04D023F00103A4
:1022D00084F8283096E72046FEF74CFF92E707B0D7
:1022E00030BD00BF2434002000B583B001A8FFF743
:1022F000B3FE0199FFF746FFFFF77EFFF6E7000008
:1023000038B5FEF7EFFD0F4B1B6813B1FEF7FAFD72
:1023100038BD0D4D2846FEF755FF0C4C2046FEF704
:1023200051FF0B4B1D600B4B1C6000221021052040
:10233000FFF7A7F8034B18600028E7D00649FFF71E
:1023400051F9E3E724340020F83300200C34002056
:10235000F0330020F43300204042000800B583B081
:10236000FFF7CEFF094B1B686BB1094B01931F238D
:10237000009300234FF4807206490748FFF70CFBD7
:1023800003B05DF804FB0020FAE700BF243400200E
:102390002834002048420008E92200082DE9F041D5
:1023A00088B000240494059406940794204B9A69FD
:1023B00042F010029A619A6902F010020192019AA9
:1023C0009A6942F020029A619A6902F02002029210
:1023D000029A9A6942F004029A619B6903F004032D
:1023E0000393039BDFF84C8022464FF40051404694
:1023F000FEF7DEF8104D2246C0212846FEF7D8F839
:102400004FF400530493012705970694022607967C
:1024100004A94046FDF7BAFFC0230493059706942C
:10242000079604A92846FDF7B1FF08B0BDE8F08182
:1024300000100240001001400008014008B54FF4B0
:1024400000510348FEF7BAF86420FFF773FCF6E783
:102450000010014008B540210348FEF7AFF84FF4E3
:102460007A70FFF767FCF6E70008014008B58021A5
:102470000348FEF7A3F840F2DC50FFF75BFCF6E7F9
:102480000008014008B5044800F056FA4FF4FA700D
:10249000FFF750FCF7E700BF5042000800B583B0DB
:1024A00001904FF6FF73012201A90348FEF772FC69
:1024B000019803B05DF804FB3034002072B6FEE7EB
:1024C00000B591B02822002106A800F095F900235C
:1024D00001930293039304930593012206924FF410
:1024E000803307930A9202220D920E934FF4E01369
:1024F0000F9306A8FEF782F880B90F2301930221FB
:102500000291002303934FF480620492059301A883
:10251000FEF7A6FA20B911B05DF804FBFFF7CEFF75
:10252000FFF7CCFF00B583B0FDF7AEFEFFF7C8FFA5
:10253000FFF734FF00F0BAF800240194022500955B
:10254000234680220F491048FFF726FA0194009590
:10255000234680220D490E48FFF71EFA019400958C
:10256000234680220B490C48FFF716FA0194009588
:102570002346802209490A48FFF70EFAFFF742FA7C
:10258000FEE700BF584200083D2400085C420008F6
:1025900055240008644200086D2400086C420008BD
:1025A0008524000882B00E4B9A6942F001029A61BC
:1025B0009A6902F001020092009ADA6942F08052B0
:1025C000DA61DB6903F080530193019B054A53688C
:1025D00023F0E06343F00073536002B0704700BF24
:1025E0000010024000000140FEE7FEE7FEE7FEE7C4
:1025F000FEE7704708B5FFF7E3FC012802D1FDF7BD
:1026000055FE08BDFEF7AEFCF9E770B50C46164660
:10261000002506E0AFF30080214601F8010B0135EB
:102620000C46B542F6DB304670BD70B50C4616461A
:10263000002504E014F8010BFFF730FF0135B54227
:10264000F8DB304670BD4FF0FF3070474FF4005359
:102650004B60002070470120704700207047000049
:1026600010B503460C4A0D490D48006840B10C48AE
:1026700000680344521A934206D8094A136010BDF9
:102680000748084C0460F2E700F08CF80C23036064
:102690004FF0FF30F3E700BF0050002000040000BF
:1026A0002C340020C03400207047000008B50A48D0
:1026B0000A4B03604FF4E133436000238360C3603F
:1026C00003610C2242618361C361FEF733FB00B9F1
:1026D00008BDFFF7F3FEFBE730340020003801406F
:1026E00010B586B000230293039304930593026808
:1026F000174B9A4201D006B010BD03F558439A69B2
:1027000042F480429A619A6902F480420092009AEF
:102710009A6942F004029A619B6903F004030193F1
:10272000019B4FF400730293022303930323059349
:10273000084C02A92046FDF729FE4FF4806302935E
:1027400000230393049302A92046FDF71FFED2E75E
:102750000038014000080140FFF7A6FF0B480C4974
:102760000C4A002302E0D458C4500433C4188C42ED
:10277000F9D3094A094C002301E013600432A24254
:10278000FBD300F015F8FFF7CDFE704700000020E6
:1027900054080020A042000854080020C034002043
:1027A000FEE70000014B1868704700BF14000020CE
:1027B00070B50D4E0D4D761BB61006D0002455F8A1
:1027C000043B01349847A642F9D1094E094D01F066
:1027D0001DFD761BB61006D0002455F8043B0134CD
:1027E0009847A642F9D170BD94420008944200086F
:1027F0009C42000894420008830730B548D0541E1C
:10280000002A3FD00346CAB201E0013C3AD303F8A4
:10281000012B9D07F9D1032C2DD9CDB245EA052511
:102820000F2C45EA054536D9A4F1100222F00F0C11
:1028300003F1200EE6444FEA121C03F1100242E9B4
:10284000045542E9025510327245F8D10CF10102EB
:1028500014F00C0F03EB021204F00F0C13D0ACF1C8
:10286000040323F003030433134442F8045B93424C
:10287000FBD10CF003042CB1CAB21C4403F8012BA9
:102880009C42FBD130BD64461346002CF4D1F9E7DD
:1028900003461446BFE71A46A446E0E730B50546AE
:1028A00089B008460C4600F04FF801210223214A66
:1028B00004940692AA6B04AC059008440194079115
:1028C000AC680293039022B3636E13F0010FB4F966
:1028D0000C309AB201D1980525D5910406D4626EC8
:1028E00043F4005322F40052A3816266284601AAF1
:1028F000214600F065FA636E002814BF4FF0FF35E3
:102900000A25DA0702D4A3899B0506D5284609B013
:1029100030BD284600F05CF8D6E7A06D00F0F2FB71
:10292000284609B030BDA06D00F0EAFBB4F90C30C8
:102930009AB2D2E790420008024B01461868FFF7AE
:10294000ADBF00BF1400002020F0030110F0030011
:10295000C0F1000051F8043B00F1040C4FEACC0C2C
:102960006FF000021CBF22FA0CF213434FF0010C6F
:102970004CEA0C2C4CEA0C4CA3EB0C0222EA0302AE
:1029800012EACC1204BF51F8043B0430F4D0C2F177
:10299000000102EA0102B2FA82F2C2F11F0200EB68
:1029A000D2007047024B13B1024800F005B87047DF
:1029B00000000000F52A0008002301461A461846C8
:1029C00001F0E4B9014900F073BB00BF3D3E0008CF
:1029D0002DE9F0478246394800F092FBDAF838409A
:1029E000002C66D1042303223549DAF80450CAF8D2
:1029F0003C10DFF8D090DFF8D080344F344E0AF529
:102A00003B71CAE9B921CAF8E0422146EB600822CD
:102A1000C5E90044C5E904446C66AC60AC6105F1ED
:102A20005C00FFF7E9FEC5E90759C5E90987EE62D1
:102A300005F1580000F060FBDAF80850254B2146FC
:102A4000EB600822C5E90044C5E904446C66AC604B
:102A5000AC6105F15C00FFF7CFFEC5E90759C5E998
:102A60000987EE6205F1580000F046FBDAF80C50D9
:102A7000194B2146EB600822C5E90044C5E904442E
:102A80006C66AC60AC6105F15C00FFF7B5FE05F16A
:102A90005800C5E90759C5E90A76C5F8248000F051
:102AA0002BFB01230548CAF83830BDE8F04700F099
:102AB00029BB0248BDE8F04700F024BB8434002065
:102AC000C5290008013C0008253C0008653C0008B9
:102AD000853C00080900010012000200014800F0D6
:102AE0000FBB00BF80340020014800F00BBB00BFCB
:102AF0008034002038B5084B084D5B1B9C1007D074
:102B0000043B1D44013C55F804399847002CF9D189
:102B1000BDE8384001F080BBA04200089C4200089C
:102B2000F8B50C46234F064600F05EFEBB685D68B4
:102B3000C4F57E6325F003050F332B4423F47F6334
:102B400023F00F03A3F58054B4F5805F07DB002169
:102B5000304601F043F8BB682B44984204D030461D
:102B600000F048FE0020F8BD3046614201F036F822
:102B700001300DD0104ABB682D1B45F001055D608A
:102B8000136830461B1B136000F034FE0120F8BDB3
:102B90000021304601F022F8BA68831A0F2BDEDDDF
:102BA00043F001035360054B03491B68C01A0860DA
:102BB000D5E700BF44040020883400204C080020E2
:102BC00000295ED0F8B50C46064600F00DFE54F81C
:102BD000042C784FA4F1080522F001016818D7F8F9
:102BE00008C04368844523F0030300F08780D207C0
:102BF000436034D454F8082C07F10804AD1A11448A
:102C0000AA68A24268D000EB030CDCF804E0D5F817
:102C10000CC01EF0010FC2F80CC0CCF8082000F068
:102C2000918041F001036B600160B1F5007F31D20A
:102C30004A09CB08012191407A6801331143796038
:102C400007EBC30257F83310083AC5E9021247F8F8
:102C50003350CD603046BDE8F84000F0CBBDC2181F
:102C60005268D2070ED4194407F108048368A342BE
:102C700070D0C268DA60936041F001036B60695004
:102C8000D3E7704741F00103B1F5007F44F8043CFD
:102C90000160CDD3B1F5206F4FEA512347D28B09A4
:102CA00003F1390003F13802C300F818FB58083863
:102CB000984258D05A6822F003028A4202D99B688F
:102CC0009842F7D1D868C5E9023085603046DD60AA
:102CD000BDE8F84000F08EBDC2185268D20763D438
:102CE0000B44D0E90212CA60916043F001026A60AD
:102CF0003046EB50BDE8F84000F07CBD0B44D107F6
:102D000007D454F8082CAD1A1344D5E90212CA604E
:102D1000916043F001026A60274ABD6012689A42DE
:102D200098D8264B30461968FFF7FAFE92E7142B25
:102D30000AD9542B1FD80B0B03F16F0003F16E025D
:102D4000C300B2E7194491E703F15C0003F15B02B1
:102D5000C300AAE741F00103C7E90455C5E90244ED
:102D60006B60695076E70121921001FA02F27968EE
:102D70000A437A60A7E7B3F5AA7F06D8CB0B03F125
:102D8000780003F17702C3008FE740F25452934278
:102D900006D88B0C03F17D0003F17C02C30084E7AD
:102DA0004FF47E737E2280E741F001036B60016087
:102DB00050E700BF4404002050080020B834002031
:102DC0009368002B00F0B7802DE9F04FB1F90C307B
:102DD0000C4619078046174683B098B225D523695B
:102DE0001BB310F002033D682DD04FF0000B5E4680
:102DF000DFF8B8A2002E00F08B80564533465A46C5
:102E000028BF53464046E169D4F824C0E047002873
:102E100040F38780BB6883441B1A361ABB60002BC3
:102E2000E8D1002003B0BDE8F08F2146404600F015
:102E300043FF002840F03681B4F90C303D6898B269
:102E400010F00203D1D110F0010976D14E46002EC8
:102E50005AD08205D4F808B040F1B580B3455A463F
:102E600000F2CD8010F4906F00F0CB8023682169D0
:102E7000A3EB010B636903EB430A0AEBDA7A0BF16C
:102E800001034FEA6A0A33445345524684BF9A46C7
:102E90005246430540F1EA801146404600F034F9BD
:102EA000002800F0F9805A4621690190FDF750F999
:102EB000A289019B22F4906242F08002A28103EB7E
:102EC0000B0023613246AAEB0B03B346C4F814A0EF
:102ED000A3602060B24600264946019200F008FC3B
:102EE000A3682168019AA3EB0B030A44A360226044
:102EF000B868D144A0EB0A00B860002891D0B4F9BA
:102F00000C0080B2002EA4D1D5E9009608359EE7CA
:102F1000D5E900B608356DE72146404601F086F850
:102F200080B3B4F90C304FF0FF3043F04003A3817D
:102F300003B0BDE8F08F002070471E46AA469946B0
:102F400018461D4656B3002832D04A4620682169EB
:102F5000B24228BF32468842636904D9A16803EBB4
:102F6000010B5A4574DC934265DC2A464046E16910
:102F7000D4F824C0E047B0F1000BD2DDB9EB0B0967
:102F8000CAD00120BB685D44A3EB0B03A6EB0B0684
:102F9000BB60002B3FF445AF002ED4D10AF10803EB
:102FA00053F8046C9A4653F8085C0833002EF7D0A7
:102FB00032460A21284600F053FB002869D0013030
:102FC000A0EB0509C1E72068236998421BD8636913
:102FD000B34218D86FF0004CB44528BFB4469CFBF0
:102FE000F3FC4A4603FB0CF34046E169D4F824C0E5
:102FF000E047B0F1000A94DDA6EB0A0678E7B34695
:103000003246206866E7B345DA4628BFB2464946ED
:10301000524600F06DFBA3682268A3EB0A035244FA
:10302000A3602260002BE7D12146404600F0FEFF5E
:103030000028E1D075E729469346019200F058FB3D
:10304000A368019A9B1AA36023681A44226095E73B
:1030500029465A4600F04CFB236821465B44404613
:10306000236000F0E3FF002888D05AE7404600F0D4
:10307000C7FB034600287FF422AF40462169FFF7D3
:103080009FFD0C22B4F90C30C8F8002023F0800317
:1030900049E7721C914659E70C22B4F90C30C8F884
:1030A000002040E74FF0FF30BCE600BF00FCFF7F90
:1030B0002DE9F8434FF000090746884600F53876B9
:1030C000D6E90154013D10D4A389013D012B08D953
:1030D000B4F90E30013304D021463846C04749EADE
:1030E00000096B1C04F16804EED13668002EE7D1AC
:1030F0004846BDE8F88300BF704700BF704700BF77
:10310000704700BF704700BF2DE9F04F01F10B057C
:10311000162D064683B025D8102900F2B88000F09D
:1031200063FB102518224FF0020CB54F3A44536848
:10313000A2F108018B4200F0B7805A68D96822F0EA
:1031400003021A449C683046E1608C60516803F1C8
:10315000080441F00101516000F04CFB204603B02F
:10316000BDE8F08F35F0070500F19180A94200F22B
:103170008E8000F039FBB5F5FC7FC0F094816B0ABE
:1031800000F08C80042B00F26A81AB0903F1390C4A
:1031900003F138044FEACC00994F384443680838AB
:1031A000984206D10CE0002980F22681DB68984223
:1031B00006D05A6822F00302511B0F29F3DDA44602
:1031C0003C69DFF840E274457AD0626822F003027D
:1031D000531B0F2B00F37681002BC7E904EE80F21E
:1031E0006781B2F5007F80F019810121D30852096F
:1031F0000B4491407A6857F833000A4307EBC30148
:103200000839A060E1607A6047F83340C46001216A
:103210004FEAAC039940914259D8114206D12CF0A3
:10322000030C490011420CF1040CFAD007EBCC0955
:1032300048466446D0F80C80404508D11CE1002B7C
:1032400080F22181D8F80C80404500F01581D8F833
:10325000042022F00302531B0F2BF0DD08EB0501C5
:1032600045F00105C8F804503046D8E90264F4601E
:10327000A66043F00104C7E904114C60C1E902EE05
:1032800048F8023000F0B6FA08F1080402E00C2316
:1032900000243360204603B0BDE8F08F4FF4007087
:1032A0004FF0400C3F2477E7D3689A4208BF0CF1F7
:1032B000020C7FF442AF3C69DFF848E1744584D1E9
:1032C00001217A684FEAAC0399409142A5D9BC68C4
:1032D000636823F003094D4503D8A9EB05030F2BC1
:1032E0007ADCDFF824B1494BDBF800201B6801329F
:1032F0002B4404EB090A00F02F8103F580530F33B0
:1033000023F47F6828F00F084146304600F066FC41
:10331000411C024600F0EF80824500F2EA803C4BFF
:10332000196841440846196000F04981DBF8001033
:10333000019301311BBFA2EB0A0A5044CBF80020D5
:10334000186012F0070B00F01181CBF108010A445C
:10335000CBF5805190440831A1EB0801C1F30B0A71
:1033600051463046009200F039FC421CDDE9002352
:1033700000F04B81801A00EB0A08196848F0010040
:103380005144BC42BA601960506000F02481B9F128
:103390000F0F40F222814FF0050E6068A9F10C0C6E
:1033A0002CF0070C00F0010040EA0C006060BCF15A
:1033B0000F0F04EB0C00C0E901EE00F22E81144661
:1033C0005068144B1A688A4238BF1960124B1A6849
:1033D0008A4238BF196090E0621943F0010345F05A
:1033E000010565603046BA600834536000F002FAA7
:1033F000204603B0BDE8F08FD9681A44A2E600BFAA
:10340000440400204C0400204C080020B834002064
:1034100088340020B0340020B4340020B2F5206F8E
:103420004FEA52235FD3142B00F2B18003F15C0109
:10343000C9005B33781879580838884200F08F80CB
:103440004B6823F00303934202D989688842F7D17D
:10345000C8687A68C4E902108460CC60D7E6142B8F
:1034600059D9542B00F29B802B0B03F16F0C03F105
:103470006E044FEACC008FE60134A30700F1080088
:103480007FF4D8AE53E0444642445368D8F80C1059
:1034900043F00103536054F8083F3046D9608B6015
:1034A00000F0A8F9F6E64FEAD50C05F108023CE673
:1034B00022445368304643F00103536000F09AF908
:1034C0000834E7E6611945F00105656043F0010540
:1034D000C7E904113046C1E902EE4D60A35000F087
:1034E00089F90834D6E6930903F13901C900383364
:1034F000A0E7BC425ED0BC68606820F00308454588
:10350000A8EB050302D80F2B3FF766AF304600F05B
:1035100071F90024BEE603F15C0C03F15B044FEA91
:10352000CC0039E659F808394B4540F095801CF03D
:10353000030F0CF1FF3CF5D17B6823EA01037B60AC
:10354000490099423FF6C3AE11B9C0E649000434C0
:103550001942FBD0A44669E603F11008D4E6012223
:103560009B109A407B681A437A6073E702EB08016C
:103570004942C1F30B0A51463046009200F02EFB3F
:10358000431CDDE900237FF4F5AEDA46F5E6542B63
:1035900026D8130B03F16F01C9006E334AE7B3F568
:1035A000AA7F26D8EB0B03F1780C03F177044FEADE
:1035B000CC00F1E5294B186840441860B6E6CAF320
:1035C0000B0CBCF1000F7FF4B1AEBC68C84448F0EE
:1035D00001006060F5E61446F3E60123536095E7C9
:1035E000B3F5AA7F24D8D30B03F17801C900773350
:1035F00020E740F25452934224D8AB0C03F17D0CE7
:1036000003F17C044FEACC00C6E5ABF1080BD844CB
:103610004FF0000AA8EB0208AFE604F108013046BB
:103620000093FFF7CDFABC68009B60681968C8E694
:1036300040F254518B420BD8930C03F17D01C90029
:103640007C33F7E64FF47E704FF07F0C7E24A3E5C9
:103650004FF47E717E23EDE67B6871E788340020AD
:103660005FFA81FC810710D00346511E2AB90AE097
:103670009A0718460AD0013905D3184613F8012BCA
:103680006245F5D1704700207047114603290CD8D8
:103690000029F8D00346014401E08B42F3D01846DC
:1036A00013F8012B6245F8D1ECE7024610B54CEA5D
:1036B0000C2444EA04441046036804326340A3F136
:1036C000013E2EEA030313F0803F04D1043903299D
:1036D0001046F0D851B10346014401E08B4205D0B9
:1036E000184613F8012B6245F8D110BD002010BD1B
:1036F00088420DD98B1883420AD900EB020CBAB16B
:10370000624613F801CD994202F801CDF9D1704714
:103710000F2A0ED8034602F1FF3C4AB10CF1010C0E
:10372000013B8C4411F8012B614503F8012FF9D1BD
:10373000704740EA01039B074FD1A2F1100370B517
:1037400001F1200C23F00F0501F1100E00F110041F
:10375000AC441B095EF8105C0EF1100E44F8105CCE
:103760005EF81C5C103444F81C5C5EF8185C44F88D
:10377000185C5EF8145CE64544F8145CEAD1013349
:1037800012F00C0F01EB031102F00F0400EB031316
:1037900027D08E46043C24F003064FEA940C1E44C6
:1037A0001C1F5EF8045B44F8045FB442F9D10CF1CD
:1037B000010402F0030203EB840301EB840102F134
:1037C000FF3C4AB10CF1010C013B8C4411F8012B78
:1037D000614503F8012FF9D170BD034602F1FF3CAA
:1037E0009CE72246EBE700BF0148FFF789BC00BF1A
:1037F0007C3400200148FFF785BC00BF7C340020EA
:103800002DE9F84F1646002900F0988006F10B05C7
:1038100080460C46FFF7E8FF162D5DD810252A4696
:10382000AE425ED854F8041CA4F1080921F0030745
:10383000974262DABC4B09EB0700D3F808C0844515
:1038400000F09780D0F804C02CF0010303445B68BB
:10385000DB0768D42CF0030C07EB0C03934247DA28
:10386000CB0710D454F8083CA9EB030ADAF804306B
:1038700023F003018C44BC44944580F211817B18F1
:10388000934280F2E88031464046FFF73DFC064611
:10389000E0B154F8043CA0F1080223F001034B44CA
:1038A000934200F0D2803A1F242A00F2F580132AB6
:1038B00000F2AC80034622461168196051685960D5
:1038C00092689A6021464046FFF77AF94046FFF732
:1038D00091FF3046BDE8F88F25F00705002D2A46F8
:1038E0009EDA0C230026C8F800303046BDE8F88F79
:1038F0001F46D0E90223D3609A607B1B0F2B22D88E
:10390000D9F8043003F001033B43C9F804304F44B5
:103910007B6843F001037B6026464046FFF76AFF61
:103920003046BDE8F88FC907ADD454F8083CA9EB80
:10393000030ADAF8041021F00301A0E71146BDE8FC
:10394000F84FFFF7E1BBD9F8041043F0010301F091
:1039500001012943C9F8041009EB05014B604F44EC
:103960007B68404643F0010308317B60FFF728F98C
:10397000D2E7DCF8040020F0030B07EB0B0C05F199
:10398000100084454DDAC9073FF57DAF54F8081C97
:10399000A9EB010ADAF8041021F003018B44BB44BF
:1039A00058453FF76CAF5646DAF80C1056F8080F3A
:1039B0003A1F242AC160886000F2DB80132A40F29B
:1039C000D68021681B2ACAF808106168CAF80C1052
:1039D00000F2E08008340AF1100221681160616889
:1039E0005160A1689160ABEB05020AEB050142F062
:1039F000010299604A60DAF80430404603F001039E
:103A00001D43CAF80450FFF7F5FE6EE723681B2A32
:103A100003606368436068D804F1080200F108039A
:103A20004AE709EB0502ACEB050C9A604CF0010388
:103A3000536054F8043C404603F001031D4344F82E
:103A4000045CFFF7D7FE26464FE750F8043C23F00E
:103A500003031F4451E75646DAF80C1056F8080FD6
:103A60003A1F242AC16088604CD8132A48D921689B
:103A70001B2ACAF808106168CAF80C1056D8083416
:103A80000AF110021F462368D14613606368536031
:103A9000A3683446936030E72146FFF729FE11E71B
:103AA0005646D0E90213CB60996056F8081FDAF841
:103AB0000C303A1F242ACB6099602DD8132A29D9BB
:103AC00023681B2ACAF808306368CAF80C3042D849
:103AD00008340AF11003226867461A606268D1460A
:103AE0005A60A26834469A6007E7A368242A836074
:103AF000E368C36026D004F1100200F11003DBE696
:103B00003246BFE7214630461F46D146FFF7F0FD5B
:103B10003446F2E63346DEE7214630466746D14674
:103B2000FFF7E6FD3446E8E644040020A168242AB5
:103B3000CAF81010E168CAF8141020D010340AF145
:103B400018029FE7236904F1180203616369436166
:103B500000F11803B0E6A368242ACAF81030E3681D
:103B6000CAF8143022D010340AF11803B3E73246F1
:103B700033E721463046FFF7BBFD174B33E7226999
:103B80001834CAF8182054F8042CCAF81C200AF17A
:103B9000200277E7A168242ACAF81010E168CAF861
:103BA00014100ED010340AF1180216E723691834E5
:103BB000CAF8183054F8043CCAF81C300AF1200343
:103BC00089E722691834CAF8182054F8042CCAF876
:103BD0001C200AF1200200E744040020002238B52E
:103BE000064D044608462A60FEF73AFD431C00D005
:103BF00038BD2B68002BFBD0236038BDBC340020BF
:103C000010B50C46B1F90E1000F0C4FA002803DB21
:103C1000236D0344236510BDA38923F48053A3813E
:103C200010BD00BF2DE9F0410C46B1F90C101F4644
:103C3000CB05054616460BD421F48051A1813B46A5
:103C400032462846B4F90E10BDE8F04100F01EB827
:103C5000B4F90E100223002200F016FAB4F90C1089
:103C6000EAE700BF10B50C46B1F90E1000F00CFAEF
:103C7000A389421C0EBF23F4805343F48053206574
:103C8000A38110BDB1F90E1000F0C6B838B50C46CE
:103C9000114600228446074D20462A601A46644693
:103CA000FEF7C3FC431C00D038BD2B68002BFBD0B3
:103CB000236038BDBC34002038B5334B05461B6843
:103CC0000C460BB19A6B12B3B4F90C3018079AB2C8
:103CD00025D5216900292DD012F0010007D000253B
:103CE0006069A5604042A06139B1002038BD9507E8
:103CF00058BF6069A0600029F7D1120658BF084676
:103D0000F4D543F040034FF0FF30A38138BD18468F
:103D1000FEF75EFEB4F90C3018079AB2D9D4D1067A
:103D20002AD5520714D4216943F00803A3819AB21B
:103D30000029D1D102F42070B0F5007FCCD021460B
:103D4000284600F0B7F9B4F90C3021699AB2C3E7FC
:103D5000216B51B104F14002914204D02846FEF794
:103D60002FFFB4F90C30002222630022216923F0D6
:103D70002403C4E90012D7E7092243F040032A6074
:103D80004FF0FF30A38138BD140000202DE9F0472B
:103D9000DFF87CA00646DAF8000098460F46914608
:103DA000FFF7AEF91B4B1B68D3F8484124B3656895
:103DB0001F2D26DC5EB96B1C0235DAF8000063604B
:103DC00044F82570FFF79EF90020BDE8F087012335
:103DD00004EB8501C1F88890D4F88821AB401A43E0
:103DE000022EC4F88821C1F80881E4D1D4F88C21CE
:103DF0001343C4F88C31DEE703F5A674C3F84841D9
:103E0000D5E7DAF80000FFF77DF94FF0FF30DCE787
:103E1000400400208C420008002238B5064D0446BC
:103E200008462A60FEF70FFC431C00D038BD2B6803
:103E3000002BFBD0236038BDBC34002070B50029B6
:103E40004BD006460C4610B1836B002B48D0636EF6
:103E5000D80734D5B4F90C30002B3ED0214630467B
:103E600000F052F8E36A054633B13046E1699847FD
:103E70000028B8BF4FF0FF35A3891A063BD4216B49
:103E800041B104F14003994202D03046FEF798FE5A
:103E900000232363616C21B13046FEF791FE0023BD
:103EA0006364FEF71BFE0022636EA281DB0727D549
:103EB000A06DFFF723F9FEF717FE284670BDA38912
:103EC0009905CBD4A06DFFF71BF9B4F90C30002B8A
:103ED000C4D1656E15F0010508D00025284670BDD7
:103EE000FEF776FD636ED807B4D4E8E7A06DFFF760
:103EF00009F9284670BD30462169FEF761FEBEE72C
:103F0000A06DFFF7FFF8D3E7B1F90C20F8B50C4628
:103F10001107074643D4636842F40062002BA28174
:103F20005BDDA56A002D56D000233E683B6093B24E
:103F300012F4805255D101233846E169A847421C4A
:103F400065D0A389A56A5B0705D56368C01A236B92
:103F50000BB1E36BC01A0246E16900233846A8475B
:103F6000411C40D13B68002B3DD01D2B01D0162BAE
:103F700054D10022A38923F40063A3812369C4E9F7
:103F80000032216B3E6031B304F14003994202D00C
:103F90003846FEF715FE002318462363F8BD266950
:103FA000CEB193B29A0718BF0023256808BF636992
:103FB0002660AD1BA3600CE02B463246D4F824C02B
:103FC0003846E169E047B0F1000CA5EB0C0566440A
:103FD00016DD002DF0DC0020F8BDE36B002BA0DC2B
:103FE000F9E7206DAFE70022B4F90C30626023F4EA
:103FF00000632269A381DB042260C2D52065C0E78B
:10400000A3894FF0FF3043F04003A381F8BD3B6824
:10401000002B96D01D2B06D0162B04D0A38943F07D
:104020004003A381F8BD00203E60F8BD38B50546C9
:104030000C4608B1836BA3B1B4F90C00B8B1636E40
:10404000DB0701D4810515D528462146FFF75CFF23
:10405000636E0546DA0702D4A3899B050ED5284670
:1040600038BDFEF7B5FCB4F90C000028E7D10546D1
:10407000284638BDA06DFFF743F8E5E7A06DFFF7D0
:1040800041F8284638BD00BF38B50C46114600221D
:104090008446074D20462A601A466446FEF7DDFA3C
:1040A000431C00D038BD2B68002BFBD0236038BDEB
:1040B000BC3400202DE9F0418B890C46990796B05D
:1040C00008D5012204F14303C4E90432236016B089
:1040D000BDE8F081B4F90E100646002927DB6A46D8
:1040E00000F06EF8002821DB019D4FF4806805F494
:1040F0007045A5F50055B5FA85F54FF400676D09D3
:1041000041463046FFF700F8B4F90C30F0B1204AD0
:1041100043F08003F263C4F81480A381206020611F
:1041200035BB3B43A38116B0BDE8F081A38913F0F2
:10413000800519D04FF04008304641460025FEF773
:10414000E3FF2F46B4F90C300028E0D19A05BED425
:10415000012123F0030304F1430243F00203C4E905
:104160000421A3812260B2E74FF480682F46C7E79D
:104170003046B4F90E1000F037F810B9B4F90C302D
:10418000CFE7A38923F0030343F001031BB2C8E781
:10419000C529000838B50C46114600228446074D53
:1041A00020462A601A466446FEF72FFA431C00D0C8
:1041B00038BD2B68002BFBD0236038BDBC340020F9
:1041C00070B50026074D0446084611462E60FEF7DE
:1041D0003DFA431C00D070BD2B68002BFBD0236040
:1041E00070BD00BFBC340020002238B5064D044627
:1041F00008462A60FEF72FFA431C00D038BD2B6812
:10420000002BFBD0236038BDBC340020F8B500BFC4
:10421000F8BC08BC9E467047F8B500BFF8BC08BCA7
:044220009E467047FF
:1042240002030405060708090A0B0C0D0E0F1010F3
:104234000102000049444C4500000000546D7251D5
:1042440000000000546D722053766300746573742B
:10425400210D00004C4544004A4451310000000047
:104264004A445132000000005553415254000000AA
:104274000000000000000000010203040607080912
:104284000000000001020304180000200A000000DE
:08429400A5290008350100080E
:04429C001101000804
:1042A0000100000010000000AAAAAAAA1F00000036
:1042B0000024F40018000020000000000403002087
:1042C0006C030020D4030020000000000000000068
:1042D00000000000000000000000000000000000DE
:1042E00000000000000000000000000000000000CE
:1042F00000000000000000000000000000000000BE
:1043000000000000000000000000000000000000AD
:10431000000000000000000000000000000000009D
:10432000000000000000000000000000000000008D
:10433000000000000000000000000000000000007D
:10434000000000000000000000000000000000006D
:10435000000000000000000000000000000000005D
:1043600001000000000000000E33CDAB34126DE6FA
:10437000ECDE05000B000000000000000000000063
:10438000000000000000000000000000000000002D
:10439000000000000000000000000000000000001D
:1043A000000000000000000000000000000000000D
:1043B00000000000000000000000000000000000FD
:1046E0007834002000000000000000004404002096
:1046F000440400204C0400204C04002054040020FA
:10470000540400205C0400205C04002064040020A9
:10471000640400206C0400206C0400207404002059
:10472000740400207C0400207C0400208404002009
:10473000840400208C0400208C04002094040020B9
:10474000940400209C0400209C040020A404002069
:10475000A4040020AC040020AC040020B404002019
:10476000B4040020BC040020BC040020C4040020C9
:10477000C4040020CC040020CC040020D404002079
:10478000D4040020DC040020DC040020E404002029
:10479000E4040020EC040020EC040020F4040020D9
:1047A000F4040020FC040020FC0400200405002088
:1047B000040500200C0500200C0500201405002035
:1047C000140500201C0500201C05002024050020E5
:1047D000240500202C0500202C0500203405002095
:1047E000340500203C0500203C0500204405002045
:1047F000440500204C0500204C05002054050020F5
:10480000540500205C0500205C05002064050020A4
:10481000640500206C0500206C0500207405002054
:10482000740500207C0500207C0500208405002004
:10483000840500208C0500208C05002094050020B4
:10484000940500209C0500209C050020A405002064
:10485000A4050020AC050020AC050020B405002014
:10486000B4050020BC050020BC050020C4050020C4
:10487000C4050020CC050020CC050020D405002074
:10488000D4050020DC050020DC050020E405002024
:10489000E4050020EC050020EC050020F4050020D4
:1048A000F4050020FC050020FC0500200406002083
:1048B000040600200C0600200C0600201406002030
:1048C000140600201C0600201C06002024060020E0
:1048D000240600202C0600202C0600203406002090
:1048E000340600203C0600203C0600204406002040
:1048F000440600204C0600204C06002054060020F0
:10490000540600205C0600205C060020640600209F
:10491000640600206C0600206C060020740600204F
:10492000740600207C0600207C06002084060020FF
:10493000840600208C0600208C06002094060020AF
:10494000940600209C0600209C060020A40600205F
:10495000A4060020AC060020AC060020B40600200F
:10496000B4060020BC060020BC060020C4060020BF
:10497000C4060020CC060020CC060020D40600206F
:10498000D4060020DC060020DC060020E40600201F
:10499000E4060020EC060020EC060020F4060020CF
:1049A000F4060020FC060020FC060020040700207E
:1049B000040700200C0700200C070020140700202B
:1049C000140700201C0700201C07002024070020DB
:1049D000240700202C0700202C070020340700208B
:1049E000340700203C0700203C070020440700203B
:1049F000440700204C0700204C07002054070020EB
:104A0000540700205C0700205C070020640700209A
:104A1000640700206C0700206C070020740700204A
:104A2000740700207C0700207C07002084070020FA
:104A3000840700208C0700208C07002094070020AA
:104A4000940700209C0700209C070020A40700205A
:104A5000A4070020AC070020AC070020B40700200A
:104A6000B4070020BC070020BC070020C4070020BA
:104A7000C4070020CC070020CC070020D40700206A
:104A8000D4070020DC070020DC070020E40700201A
:104A9000E4070020EC070020EC070020F4070020CA
:104AA000F4070020FC070020FC0700200408002079
:104AB000040800200C0800200C0800201408002026
:104AC000140800201C0800201C08002024080020D6
:104AD000240800202C0800202C0800203408002086
:104AE000340800203C0800203C080020FFFFFFFFA6
:044AF00000000200C0
:04000005080027596F
:00000001FF
